:10000000F5C0000021C100001FC100001DC100009B
:100010001BC1000019C1000017C1000015C100007C
:1000200013C1000011C100000FC100000DC100008C
:100030000BC1000009C1000007C1000005C100009C
:1000400003C1000001C10000FFC00000FDC00000AE
:10005000FBC00000F9C00000F7C0000017C400009A
:10006000F3C00000DDC30000B2C30000EDC000001B
:10007000EBC00000E9C00000E7C00000E5C00000E0
:10008000E3C00000E1C00000DFC00000DDC00000F0
:10009000DBC00000D9C00000D7C00000D5C0000000
:1000A000D3C00000D1C00000CFC00000CDC0000010
:1000B000CBC00000C9C00000C7C00000C5C0000020
:1000C000C3C00000C1C00000BFC00000BDC0000030
:1000D000BBC00000B9C00000B7C00000B5C0000040
:1000E000B3C0000000000A0B02090C0D0E08070344
:1000F00004010000000000000000000000000000FB
:1001000000000000000000000000000000000000EF
:1001100012111000000000000000000000000000AC
:100120000000000000000000000000002200250088
:1001300028002B002E0031003400020100000501D0
:1001400008010B0100002100240027002A002D00D7
:100150003000330001010000040107010A01050518
:100160000505070508080808020202020A0A08082D
:10017000040404040101010101010101030303035B
:1001800003030303040707070C0C0C0C0C0C0C0CEA
:100190000202020206060606060606060B0B0B0BFB
:1001A0000B0B0B0B01021020200808102040102020
:1001B000408002010201080402010102040810202B
:1001C0004080804020100804020180040201804029
:1001D0002010080402010804020101020408102092
:1001E00040800102040810204080900411241FBEAA
:1001F000CFEFD1E2DEBFCDBF00E00CBF12E0A0E048
:10020000B2E0EAE6F0E100E00BBF02C007900D9219
:10021000A234B107D9F723E0A2E4B2E001C01D92F5
:10022000A233B207E1F710E0C6EFD0E000E005C06E
:1002300021970109802FFE0108D7C53FD10780E033
:100240000807B1F7ACD30FC7DBCEEFE4F2E0A0892B
:10025000B18982E08C93A485B5851C92A685B7856B
:100260008FEC8C93108EA489B58986E08C93A2893B
:10027000B3898C9180618C93A289B3898C918860B9
:100280008C93A289B3898C9180688C930288F389BE
:10029000E02D80818F7D80830895EAEAF1E024914A
:1002A000E4E6F1E08491882399F090E0880F991FAB
:1002B000FC01EC5BFE4FA591B491FC01E65DFE4FA5
:1002C000859194918FB7F894EC91E22BEC938FBFCA
:1002D0000895AF92BF92CF92DF92EF92FF920F9369
:1002E0001F93CF93DF936C017B018B01040F151FCC
:1002F000EB015E01AE18BF08C017D10759F0699134
:10030000D601ED91FC910190F081E02DC601199587
:10031000892B79F7C501DF91CF911F910F91FF9044
:10032000EF90DF90CF90BF90AF900895FC01538D78
:10033000448D252F30E0842F90E0821B930B5417BF
:1003400010F0CF96089501970895FC01918D828D4C
:10035000981761F0A28DAE0FBF2FB11D5D968C91E5
:10036000928D9F5F9F73928F90E008958FEF9FEF24
:100370000895FC01918D828D981731F0828DE80FE0
:10038000F11D858D90E008958FEF9FEF0895FC019A
:10039000918D228D892F90E0805C9F4F821B910967
:1003A0008F73992708958FE492E0F1DF21E0892B84
:1003B00009F420E0822F0895FC01A48DA80FB92F25
:1003C000B11DA35ABF4F2C91848D90E001968F737D
:1003D0009927848FA689B7892C93A089B1898C919C
:1003E000837080648C93938D848D981306C00288EB
:1003F000F389E02D80818F7D80830895EF92FF92B5
:100400000F931F93CF93DF93EC0181E0888F9B8D37
:100410008C8D98131AC0E889F989808185FF15C0F1
:100420009FB7F894EE89FF896083E889F989808114
:100430008370806480839FBF81E090E0DF91CF91E3
:100440001F910F91FF90EF900895F62E0B8D10E005
:100450000F5F1F4F0F731127E02E8C8D8E110BC075
:100460000FB607FCFACFE889F989808185FFF5CFBF
:10047000CE01A2DFF2CFEB8DEC0FFD2FF11DE35A81
:10048000FF4FF0829FB7F8940B8FEA89FB89808138
:100490008062D0CFCF93DF93EC01888D8823B1F0B9
:1004A000AA89BB89E889F9898C9185FD03C080817F
:1004B00086FD0CC00FB607FCF7CF8C9185FFF2CFFD
:1004C000808185FFEDCFCE0177DFEACFDF91CF913D
:1004D000089580E090E0892B21F065DF81110E9472
:1004E000000080E090E0892B49F080E090E0892BCB
:1004F00029F00E94000081110E94000080E090E03D
:10050000892B49F080E090E0892B29F00E940000BF
:1005100081110E94000080E090E0892B49F080E08A
:1005200090E0892B29F00E94000081110C940000BA
:100530000895282F30E0F901EC51FF4F9491F90113
:10054000EC55FE4F4491225A3E4FF901249122234B
:1005500009F434C0992309F191509231F0F4E92F54
:10056000F0E08827EA54FD4F8F4F6FC5E702EB029A
:10057000C802DF02E302CD02EE02F402F802FE023C
:10058000020306030C031003CD0214031A031E0317
:10059000809180008F7780938000E22FF0E0EE0F53
:1005A000FF1FE65DFE4FA591B4918FB7F894EC91D3
:1005B000611148C040954E234C938FBF08958091A0
:1005C00080008F7DE8CF80918000877FE4CF84B565
:1005D0008F7784BDE2CF84B58F7DFBCF8091B00053
:1005E0008F778093B000D9CF8091B0008F7DF9CF05
:1005F000809190008F7780939000CFCF8091900072
:100600008F7DF9CF80919000877FF5CF8091A000FA
:100610008F778093A000C1CF8091A0008F7DF9CF0C
:100620008091A000877FF5CF809120018F77809304
:100630002001B3CF809120018F7DF9CF80912001DF
:10064000877FF5CF4E2BB8CF3FB7F8948091470204
:1006500090914802A0914902B0914A0226B5A89B08
:1006600005C02F3F19F00196A11DB11D3FBFBA2F44
:10067000A92F982F8827BC01CD01620F711D811D04
:10068000911D42E0660F771F881F991F4A95D1F789
:1006900008952FB7F89460914302709144028091BD
:1006A0004502909146022FBF0895FC010190002061
:1006B000E9F73197AF01481B590BBC018FE492E079
:1006C00008CE8F929F92AF92BF920F931F93CF93BA
:1006D000DF93CDB7DEB7A1970FB6F894DEBF0FBE9C
:1006E000CDBF19A2423008F44AE08E010F5D1F4FC2
:1006F000842E912CB12CA12CA501940159D4E62F64
:10070000B901CA01EA30ECF4E05DD801EE938D0145
:10071000232B242B252B81F790E080E0109711F0FC
:10072000CD01C3DFA1960FB6F894DEBF0FBECDBFDB
:10073000DF91CF911F910F91BF90AF909F908F90BD
:100740000895E95CE2CF1F93CF93DF9300D01F920F
:10075000CDB7DEB78FE492E0F8DD8FE492E0F5DD0F
:1007600010E08A3371F0E1E0F0E0EC0FFD1FE10FE3
:10077000F11D17FDFA9580831F5F8FE492E0E5DDA0
:10078000F0CFCE010196EFD3182F8FE492E0DDDD9C
:100790008053990B8230910518F4682F812FC9DEA0
:1007A0008FE492E0D2DD8A3011F08D30C9F78FE40A
:1007B00092E0DFDD8A3019F48FE492E0C6DD0F901D
:1007C0000F900F900F90DF91CF911F9108951F927E
:1007D0000F920FB60F9211240BB60F922F933F93E7
:1007E0004F935F936F937F938F939F93AF93BF9339
:1007F000EF93FF938FE492E0DFDDFF91EF91BF91E4
:10080000AF919F918F917F916F915F914F913F91A8
:100810002F910F900BBE0F900FBE0F901F90189549
:100820001F920F920FB60F9211240BB60F922F93B7
:100830008F939F93EF93FF93E0915F02F09160029B
:100840008081E0916502F091660282FD1DC0908179
:10085000809168028F5F8F7320916902821741F047
:10086000E0916802F0E0E15BFD4F958F80936802B4
:10087000FF91EF919F918F912F910F900BBE0F9051
:100880000FBE0F901F9018958081F2CF1F920F928C
:100890000FB60F9211242F933F938F939F93AF9393
:1008A000BF938091430290914402A0914502B09180
:1008B00046023091420223E0230F2D3758F501966E
:1008C000A11DB11D209342028093430290934402E4
:1008D000A0934502B093460280914702909148024E
:1008E000A0914902B0914A020196A11DB11D8093C9
:1008F000470290934802A0934902B0934A02BF91E5
:10090000AF919F918F913F912F910F900FBE0F90BC
:100910001F90189526E8230F0296A11DB11DD2CF76
:10092000EFE4F2E01382128288EE93E0A0E0B0E000
:1009300084839583A683B78384E092E09183808348
:1009400085EC90E09587848784EC90E09787868794
:1009500080EC90E0918B808B81EC90E0938B828B8C
:1009600082EC90E0958B848B86EC90E0978B868B65
:10097000118E128E138E148EECEEF2E01682178218
:10098000108611861286138614861586168617869B
:10099000108A118A128A138A148A158A0895789403
:1009A00084B5826084BD84B5816084BD85B5826074
:1009B00085BD85B5816085BD80916E008160809325
:1009C0006E0010928100809181008260809381008E
:1009D000809181008160809381008091800081609E
:1009E000809380008091B10084608093B1008091F9
:1009F000B00081608093B00080919100826080930C
:100A0000910080919100816080939100809190008D
:100A10008160809390008091A10082608093A1000A
:100A20008091A10081608093A1008091A0008160ED
:100A30008093A000809121018260809321018091A8
:100A40002101816080932101809120018160809348
:100A5000200180917A00846080937A0080917A00EE
:100A6000826080937A0080917A00816080937A001E
:100A700080917A00806880937A001092C100109271
:100A80002E0310922F031092300310923103109214
:100A9000EE021092EF021092F0021092F102F9DDD4
:100AA0006B017C014B015C0128EB820E2BE0921E56
:100AB000A11CB11CEEDD6C157D058E059F0528F08F
:100AC00086169706A806B906A8F7BEDD4B015C019D
:100AD00098EEC92E93E0D92EE12CF12CB5DD6819E2
:100AE00079098A099B09683E734081059105B0F335
:100AF00031E0C31AD108E108F10848EE840E43E062
:100B0000941EA11CB11CC114D104E104F10431F7FD
:100B10009CDBBFDD6093EE027093EF028093F002E6
:100B20009093F10282E192E0C0DDB3DD6B017C01C4
:100B30004B015C018AE0880E911CA11CB11CA9DD4F
:100B40006C157D058E059F0528F086169706A8066C
:100B5000B906A8F781E0809302039BDD6093EE0263
:100B60007093EF028093F0029093F10283E292E09F
:100B70009CDD6BDB92DB84EF882E99249394A12C6F
:100B8000B12C10E4CAEED0E084DD672B682B692B12
:100B900009F4D8C07EDDC0904B02D0904C02E090AA
:100BA0004D02F0904E026C157D058E059F0508F4F0
:100BB0000FC1C0904B02D0904C02E0904D02F090DB
:100BC0004E029B01AC012C193D094E095F096901D8
:100BD0007A013AEFC316D104E104F10408F4B9C074
:100BE00060934B0270934C0280934D0290934E029F
:100BF0008092FA029092FB02A092FC02B092FD0257
:100C00001092FE021092FF02109200031092010354
:100C10008091F2029091F302A091F402B091F5025A
:100C20008093F6029093F702A093F802B093F90232
:100C300030DD6093F2027093F3028093F40290939C
:100C4000F5028FE492E095DB843609F47CDD21DD4A
:100C50006093EE027093EF028093F0029093F102A2
:100C600018DD6B017C018AE292E01FDD4AE061E061
:100C700070E080E090E025DD81E392E016DD4AE05F
:100C8000C701B6011EDD83E392E00FDD8091F20221
:100C90009091F302A091F402B091F502A7019601A0
:100CA000281B390B4A0B5B0BCA01B9014AE009DD6D
:100CB00083E392E0FADC6091F2027091F30280919A
:100CC000F4029091F502C090F602D090F702E09005
:100CD000F802F090F9026C197D098E099F094AE02B
:100CE000F0DC85E392E0E1DCD4DC4AE0EADC87E397
:100CF00092E0DBDC8EE392E0D8DCCBDC6B017C01A4
:100D00002B013C0135E0430E511C611C711CC1DC00
:100D10006C157D058E059F0528F04616570668065A
:100D20007906A8F78FE492E024DB843609F40BDD22
:100D3000B0DC6093F2027093F3028093F40290931C
:100D4000F50207C0A6DC623071058105910508F047
:100D500021CF80917B00877F80937B0010937C0064
:100D600080917A00806480937A0080917A0086FD79
:100D7000FCCF80917800A0917900BA2FA82F2FEF97
:100D800030E06BD12FEF33E040E050E033D1690128
:100D90007A01390182DAC114D10419F560E086E0E4
:100DA000C8DB4AE0C701B601F7FE0CC06DE28FE474
:100DB00092E024DB66277727CB016C197D098E0929
:100DC0009F094AE07EDC8EE392E06FDC82DBDCCEC2
:100DD00060934B0270934C0280934D0290934E02AD
:100DE000E8CE4FEFC416D10411F461E0D8CFFE0174
:100DF0008491EFEFE80FE23108F0AFC0F0E0882710
:100E0000EC5FF84F8F4F21C116071B0720072A07F9
:100E10003407AD073E0746074E07580762076C07C1
:100E20007B078507AD078F079907A30784B58068FF
:100E300084BDC7BCB6CF84B5806284BDC8BCB1CF09
:100E400080918000806880938000D0928900C09259
:100E50008800A7CF80918000806280938000D0922C
:100E60008B00C0928A009DCF809180008860809323
:100E70008000D0928D00C0928C0093CF8091B00002
:100E800080688093B000C092B3008BCF8091B00097
:100E900080628093B000C092B40083CF80919000B4
:100EA000806880939000D0929900C092980079CF8A
:100EB00080919000806280939000D0929B00C092BD
:100EC0009A006FCF80919000886080939000D092BC
:100ED0009D00C0929C0065CF8091A00080688093A7
:100EE000A0008091A0008F7B8093A000D092A900E9
:100EF000C092A80056CF8091A00080628093A0008D
:100F0000D092AB00C092AA004CCF8091A000886024
:100F10008093A000D092AD00C092AC0042CF8091EF
:100F20002001806880932001D0922901C09228017D
:100F300038CF80912001806280932001D0922B01D4
:100F4000C0922A012ECF80912001886080932001D9
:100F5000D0922D01C0922C0124CFF0E86F167104BD
:100F60000CF043CF1BCFFC0188279927E8942191EF
:100F70002032E9F3293010F02E30C8F32B3239F04B
:100F80002D3231F4689403C00BD0820F911D219152
:100F900020532A30C8F31EF4909581959F4F0895F1
:100FA0007AE0979F902D879F802D910D11240895B1
:100FB000A1E21A2EAA1BBB1BFD010DC0AA1FBB1F5D
:100FC000EE1FFF1FA217B307E407F50720F0A21BCF
:100FD000B30BE40BF50B661F771F881F991F1A943C
:100FE00069F760957095809590959B01AC01BD0166
:100FF000CF010895052E97FB16F400940FD057FDEE
:1010000005D0D6DF07FC02D046F408C050954095C5
:10101000309521953F4F4F4F5F4F089590958095A4
:10102000709561957F4F8F4F9F4F0895A29FB0019C
:10103000B39FC001A39F700D811D1124911DB29F0C
:10104000700D811D1124911D0895EE0FFF1F881F43
:101050008BBF0790F691E02D1994E8DFB7FF089554
:0A106000821B930B0895F894FFCF54
:10106A0000000000FE01690196014A02C701A501BC
:10107A00B901564D4450565F317C315F564D44504C
:10108A00560A00564D4450525F00564D4450455F33
:10109A00003A323A007C005F564D445045000D0A32
:0210AA00000044
:00000001FF
