:100000000C9462000C948A000C948A000C948A0070
:100010000C948A000C948A000C948A000C948A0038
:100020000C948A000C948A000C948A000C948A0028
:100030000C948A000C948A000C948A000C948A0018
:100040000C9496030C948A000C9464030C943E0365
:100050000C948A000C948A000C948A000C948A00F8
:100060000C948A000C948A000000000024002700F1
:100070002A0000000000250028002B0000000008D6
:10008000000201000003040700000000000000005F
:1000900000000000230026002900040404040404D6
:1000A0000404020202020202030303030303010227
:1000B00004081020408001020408102001020408F6
:1000C0001020250411241FBECFEFD8E0DEBFCDBF26
:1000D00011E0A0E0B1E0E6E8F0E102C005900D9289
:1000E000AC31B107D9F721E0ACE1B1E001C01D921C
:1000F000AB3DB207E1F710E0C2E6D0E004C02197C3
:10010000FE010E943B08C136D107C9F70E9478045E
:100110000C9441080C940000AF92BF92CF92DF92F2
:10012000EF92FF920F931F93CF93DF936C017B01AC
:100130008B01040F151FEB015E01AE18BF08C0173D
:10014000D10759F06991D601ED91FC910190F081B0
:10015000E02DC6010995892B79F7C501DF91CF9173
:100160001F910F91FF90EF90DF90CF90BF90AF90D5
:100170000895FC01538D448D252F30E0842F90E0AD
:10018000821B930B541710F0CF9608950197089592
:10019000FC01918D828D981761F0A28DAE0FBF2F5B
:1001A000B11D5D968C91928D9F5F9F73928F90E0B1
:1001B00008958FEF9FEF0895FC01918D828D981720
:1001C00031F0828DE80FF11D858D90E008958FEF5D
:1001D0009FEF0895FC01918D228D892F90E0805C26
:1001E0009F4F821B91098F739927089585E291E0B3
:1001F0000E94EA0021E0892B09F420E0822F089573
:1002000080E090E0892B29F00E94F60081110C9487
:1002100000000895FC01A48DA80FB92FB11DA35AA9
:10022000BF4F2C91848D90E001968F739927848F16
:10023000A689B7892C93A089B1898C918370806439
:100240008C93938D848D981306C00288F389E02DDA
:1002500080818F7D80830895EF92FF920F931F938B
:10026000CF93DF93EC0181E0888F9B8D8C8D981369
:100270001AC0E889F989808185FF15C09FB7F89475
:10028000EE89FF896083E889F989808183708064C1
:1002900080839FBF81E090E0DF91CF911F910F910C
:1002A000FF90EF900895F62E0B8D10E00F5F1F4F1B
:1002B0000F731127E02E8C8D8E110CC00FB607FC2A
:1002C000FACFE889F989808185FFF5CFCE010E94B8
:1002D0000A01F1CFEB8DEC0FFD2FF11DE35AFF4F1B
:1002E000F0829FB7F8940B8FEA89FB898081806246
:1002F000CFCFCF93DF93EC01888D8823B9F0AA8903
:10030000BB89E889F9898C9185FD03C0808186FDD0
:100310000DC00FB607FCF7CF8C9185FFF2CF80811F
:1003200085FFEDCFCE010E940A01E9CFDF91CF9189
:10033000089590E0FC01E458FF4F2491FC01E25540
:10034000FF4F3491FC01E656FF4FE491EE23C9F0D4
:10035000222339F0233001F1A8F4213019F12230A1
:1003600029F1F0E0EE0FFF1FEE58FF4FA591B49179
:100370008FB7F894EC91611126C030953E233C93E1
:100380008FBF08952730A9F02830C9F0243049F7ED
:10039000809180008F7D03C0809180008F77809353
:1003A0008000DFCF84B58F7784BDDBCF84B58F7DB0
:1003B000FBCF8091B0008F778093B000D2CF809137
:1003C000B0008F7DF9CF3E2BDACFCF93DF9390E053
:1003D000FC01E255FF4F249186569F4FFC0184910A
:1003E0008823D1F090E0880F991FFC01E859FF4F56
:1003F000A591B491FC01EE58FF4FC591D4916111C4
:100400000EC09FB7F8948C91E22FE0958E238C93C9
:100410002881E223E8839FBFDF91CF9108958FB7B2
:10042000F894EC91E22BEC938FBFF6CF1F93CF9310
:10043000DF93182FEB0161E00E94E501209739F46A
:1004400060E0812FDF91CF911F910C949901CF3FF4
:10045000D10511F461E0F5CFE12FF0E0E458FF4F52
:10046000E491E33031F140F4E130B1F0E230E1F019
:10047000C038D1057CF7E4CFE73029F1E83059F1F5
:10048000E430B1F780918000806280938000D09347
:100490008B00C0938A0004C084B5806884BDC7BD4A
:1004A000DF91CF911F91089584B5806284BDC8BD4E
:1004B000F7CF80918000806880938000D09389007E
:1004C000C0938800EDCF8091B00080688093B00029
:1004D000C093B300E5CF8091B00080628093B000FC
:1004E000C093B400DDCFFF920F931F93CF93DF93A0
:1004F000F62E8A01CDECD1E0682F8E810E94990101
:100500006F2D88850E949901B8018C85DF91CF916C
:100510001F910F91FF900C941602FF920F931F935F
:10052000CF93DF93F62E8A01CDECD1E0682F8A813C
:100530000E9499016F2D8C810E949901B8018A85D2
:10054000DF91CF911F910F91FF900C94160250E014
:1005500040E070E060E090E080E00E948D0250E0BA
:1005600040E070E060E090E080E00C947302CF9394
:10057000DF93EC01AC0161E070E090E080E00E946C
:100580008D02AE0161E070E090E080E0DF91CF91FC
:100590000C9473023FB7F89480912101909122014D
:1005A000A0912301B091240126B5A89B05C02F3F3F
:1005B00019F00196A11DB11D3FBFBA2FA92F982F89
:1005C0008827BC01CD01620F711D811D911D42E084
:1005D000660F771F881F991F4A95D1F708958F924C
:1005E0009F92AF92BF92CF92DF92EF92FF924B0118
:1005F0005C010E94CA026B017C010E94CA026C1954
:100600007D098E099F09683E734081059105A8F315
:1006100021E0821A9108A108B10888EEC80E83E093
:10062000D81EE11CF11C81149104A104B10429F726
:10063000FF90EF90DF90CF90BF90AF909F908F9002
:100640000895CF93DF93EC0161E08A810E94E50178
:1006500061E08C810E94E50161E08E810E94E501EC
:1006600061E088850E94E50161E08A850E94E501DC
:1006700061E08C85DF91CF910C94E5011F920F9280
:100680000FB60F9211242F933F934F935F936F9365
:100690007F938F939F93AF93BF93EF93FF9385E2E5
:1006A00091E00E940A01FF91EF91BF91AF919F915C
:1006B0008F917F916F915F914F913F912F910F900B
:1006C0000FBE0F901F9018951F920F920FB60F92AA
:1006D00011242F938F939F93EF93FF93E091350114
:1006E000F09136018081E0913B01F0913C0182FD67
:1006F0001BC0908180913E018F5F8F7320913F01DD
:10070000821741F0E0913E01F0E0EB5DFE4F958FE6
:1007100080933E01FF91EF919F918F912F910F90C8
:100720000FBE0F901F9018958081F4CF1F920F92EB
:100730000FB60F9211242F933F938F939F93AF93F4
:10074000BF9380911D0190911E01A0911F01B09156
:10075000200130911C0123E0230F2D3758F501961D
:10076000A11DB11D20931C0180931D0190931E01BA
:10077000A0931F01B093200180912101909122014B
:10078000A0912301B09124010196A11DB11D809378
:10079000210190932201A0932301B0932401BF91E2
:1007A000AF919F918F913F912F910F900FBE0F901E
:1007B0001F90189526E8230F0296A11DB11DD2CFD8
:1007C000CF92DF92EF92FF920F931F93E82FF92FB2
:1007D00005C0015011092109310961F19081962369
:1007E0009417B9F305C0015011092109310911F11C
:1007F000908196239413F7CFC12CD12CE12CF12CAE
:100800000AC08FEFC81AD80AE80AF80A0C151D05A5
:100810002E053F0579F080818623841791F36C2D96
:100820007D2D8E2D9F2D1F910F91FF90EF90DF90CA
:10083000CF90089560E070E080E090E01F910F910C
:10084000FF90EF90DF90CF900895E5E2F1E0138202
:10085000128288EE93E0A0E0B0E084839583A683C3
:10086000B78388E091E09183808385EC90E0958761
:10087000848784EC90E09787868780EC90E0918B6A
:10088000808B81EC90E0938B828B82EC90E0958B57
:10089000848B86EC90E0978B868B118E128E138E54
:1008A000148EEDECF1E08AE191E09183808387E0A2
:1008B00090E09383828388E090E0958384838CE04A
:1008C00090E0978386838DE090E09187808789E030
:1008D00090E0938782878AE090E095878487E2ECB6
:1008E000F1E086E0808385E081838AE08283089559
:1008F000789484B5826084BD84B5816084BD85B5FB
:10090000826085BD85B5816085BD80916E00816006
:1009100080936E00109281008091810082608093AC
:1009200081008091810081608093810080918000AE
:100930008160809380008091B10084608093B100D9
:100940008091B00081608093B00080917A008460D3
:1009500080937A0080917A00826080937A008091FF
:100960007A00816080937A0080917A008068809319
:100970007A001092C100E0913501F091360182E0D9
:100980008083E0913101F09132011082E0913301D6
:10099000F09134018FEC808310923D01E091390198
:1009A000F0913A0186E08083E0913701F0913801BF
:1009B000808180618083E0913701F09138018081EE
:1009C00088608083E0913701F091380180818068F0
:1009D0008083E0913701F091380180818F7D8083A1
:1009E0008DEC91E00E94210361E08091C2010E94A0
:1009F000E50160E08091C3010E94E501C3E2D0E01F
:100A000052E0852E912CA12CB12C60E0E62E60E006
:100A1000F62E60E08091C2010E949901CE010197FB
:100A2000F1F761E08091C2010E9499018091C401B7
:100A300090E08230910538F0880F991F880F991F38
:100A400005970197F1F760E08091C2010E9499013A
:100A50008091C30190E0FC01E255FF4F6491FC01DD
:100A6000E656FF4FE491F0E0EE0FFF1FE057FF4F17
:100A70008591949100E412E42FE030E0462F0E942B
:100A8000E003611571058105910529F06F5F7F4FC6
:100A90008F4F9F4F9F706093C5017093C6018093E5
:100AA000C7019093C80195958795779567950E94A2
:100AB000AF072DEC3CEC48EE51E40E9405070E9484
:100AC00077076093C9017093CA018093CB0190931B
:100AD000CC01683C710581059105B4F08FEF90E081
:100AE0000E94B70264E670E080E090E00E94EF02AE
:100AF000E114F10409F48DCF0E94F600882309F473
:100B000088CF0E94000085CF623371058105910571
:100B10001CF080EC90E0E4CF6E3171058105910509
:100B20001CF082E890E0DCCF64317105810591050D
:100B3000CCF60E94A7026CED75E080E090E00E9488
:100B4000EF024FEF50E070E060E081E090E00E9443
:100B50008D024FEF50E070E060E081E090E00E9495
:100B6000730264EF71E080E090E00E94EF020E9467
:100B7000A70264EF71E080E090E00E94EF020E9423
:100B80004A06A50194010E94A206DC01CB01019650
:100B9000A11DB11D8130910559F0029701F10E940C
:100BA000A7026CED75E080E090E00E94EF029ACF22
:100BB0004FEF50E070E060E081E090E00E948D0235
:100BC0004FEF50E061E070E090E080E00E9473023F
:100BD00068EE73E080E090E00E94EF02E0CF4FEF1C
:100BE00050E061E070E090E080E00E948D024FEF05
:100BF00050E070E060E081E090E0E8CF8F929F925B
:100C0000AF92BF92CF92DF92EF92FF92CF93DF939A
:100C1000EC01688179818A819B816115710581056B
:100C2000910521F464E279ED8BE597E02DE133EF56
:100C300041E050E00E94A20649015A019B01AC012B
:100C4000A7EAB1E40E94C1066B017C01ACEEB4EFEF
:100C5000A50194010E94CF06C60ED71EE81EF91EFC
:100C6000F7FE06C081E0C81AD108E10880E8F80A5A
:100C7000C882D982EA82FB82C701B6019F77DF91E1
:100C8000CF91FF90EF90DF90CF90BF90AF909F906B
:100C90008F9008958F929F92AF92BF92CF92DF92E2
:100CA000EF92FF9260910001709101018091020129
:100CB00090910301611571058105910521F464E2AC
:100CC00079ED8BE597E02DE133EF41E050E00E94B4
:100CD000A20649015A019B01AC01A7EAB1E40E94B6
:100CE000C1066B017C01ACEEB4EFA50194010E943A
:100CF000CF06C60ED71EE81EF91EF7FE06C081E01D
:100D0000C81AD108E10880E8F80AC0920001D09220
:100D10000101E0920201F0920301C701B6019F7741
:100D2000FF90EF90DF90CF90BF90AF909F908F900B
:100D300008956093000170930101809302019093E4
:100D400003010895052E97FB1EF400940E94B90636
:100D500057FD07D00E94D40607FC03D04EF40C9434
:100D6000B90650954095309521953F4F4F4F5F4FB5
:100D7000089590958095709561957F4F8F4F9F4F07
:100D800008950E94F606A59F900DB49F900DA49F14
:100D9000800D911D11240895B7FF0C94C1060E9487
:100DA000C106821B930B0895A1E21A2EAA1BBB1B3E
:100DB000FD010DC0AA1FBB1FEE1FFF1FA217B30727
:100DC000E407F50720F0A21BB30BE40BF50B661F3D
:100DD000771F881F991F1A9469F760957095809501
:100DE00090959B01AC01BD01CF010895A29FB00178
:100DF000B39FC001A39F700D811D1124911DB29F4F
:100E0000700D811D1124911D08950E9419070C94E5
:100E100001080E94FA0758F00E94F30740F029F4F5
:100E20005F3F29F00C94EA0751110C9435080C949B
:100E3000F0070E94120868F39923B1F3552391F348
:100E4000951B550BBB27AA2762177307840738F039
:100E50009F5F5F4F220F331F441FAA1FA9F335D096
:100E60000E2E3AF0E0E832D091505040E695001C4A
:100E7000CAF72BD0FE2F29D0660F771F881FBB1F04
:100E8000261737074807AB07B0E809F0BB0B802DE2
:100E9000BF01FF2793585F4F3AF09E3F510578F00E
:100EA0000C94EA070C9435085F3FE4F3983ED4F3C2
:100EB000869577956795B795F7959F5FC9F7880FE2
:100EC000911D9695879597F90895E1E0660F771F34
:100ED000881FBB1F621773078407BA0720F0621BC5
:100EE000730B840BBA0BEE1F88F7E09508950E94F0
:100EF0007E076894B1110C94350808950E941A0871
:100F000088F09F5798F0B92F9927B751B0F0E1F0CA
:100F1000660F771F881F991F1AF0BA95C9F714C07A
:100F2000B13091F00E943408B1E008950C94340877
:100F3000672F782F8827B85F39F0B93FCCF38695B3
:100F400077956795B395D9F73EF490958095709510
:100F500061957F4F8F4F9F4F0895E89409C097FB8D
:100F60003EF490958095709561957F4F8F4F9F4F80
:100F70009923A9F0F92F96E9BB279395F6958795C4
:100F800077956795B795F111F8CFFAF4BB0F11F487
:100F900060FF1BC06F5F7F4F8F4F9F4F16C088232E
:100FA00011F096E911C0772321F09EE8872F762F64
:100FB00005C0662371F096E8862F70E060E02AF0A5
:100FC0009A95660F771F881FDAF7880F9695879591
:100FD00097F9089597F99F6780E870E060E00895B9
:100FE0009FEF80EC089500240A9416161706180641
:100FF0000906089500240A9412161306140605061D
:101000000895092E0394000C11F4882352F0BB0FAD
:1010100040F4BF2B11F460FF04C06F5F7F4F8F4F10
:101020009F4F089557FD9058440F551F59F05F3F4B
:1010300071F04795880F97FB991F61F09F3F79F0FA
:1010400087950895121613061406551FF2CF46957C
:10105000F1DF08C0161617061806991FF1CF8695FE
:101060007105610508940895E894BB2766277727E2
:10107000CB0197F90895EE0FFF1F0590F491E02D35
:061080000994F894FFCF73
:1010860001000000000000002C018C00B90079016D
:0C109600EA00C800DC000000000021039C
:107E0000112484B714BE81FFF0D085E080938100F7
:107E100082E08093C00088E18093C10086E0809377
:107E2000C20080E18093C4008EE0C9D0259A86E02C
:107E300020E33CEF91E0309385002093840096BBD3
:107E4000B09BFECF1D9AA8958150A9F7CC24DD24C4
:107E500088248394B5E0AB2EA1E19A2EF3E0BF2EE7
:107E6000A2D0813461F49FD0082FAFD0023811F036
:107E7000013811F484E001C083E08DD089C08234E0
:107E800011F484E103C0853419F485E0A6D080C0E4
:107E9000853579F488D0E82EFF2485D0082F10E0AE
:107EA000102F00270E291F29000F111F8ED06801E7
:107EB0006FC0863521F484E090D080E0DECF843638
:107EC00009F040C070D06FD0082F6DD080E0C81688
:107ED00080E7D80618F4F601B7BEE895C0E0D1E017
:107EE00062D089930C17E1F7F0E0CF16F0E7DF06D8
:107EF00018F0F601B7BEE89568D007B600FCFDCFD4
:107F0000A601A0E0B1E02C9130E011968C91119780
:107F100090E0982F8827822B932B1296FA010C0160
:107F200087BEE89511244E5F5F4FF1E0A038BF0790
:107F300051F7F601A7BEE89507B600FCFDCF97BE46
:107F4000E89526C08437B1F42ED02DD0F82E2BD052
:107F50003CD0F601EF2C8F010F5F1F4F84911BD097
:107F6000EA94F801C1F70894C11CD11CFA94CF0C13
:107F7000D11C0EC0853739F428D08EE10CD085E9AC
:107F80000AD08FE07ACF813511F488E018D01DD067
:107F900080E101D065CF982F8091C00085FFFCCF94
:107FA0009093C60008958091C00087FFFCCF809118
:107FB000C00084FD01C0A8958091C6000895E0E648
:107FC000F0E098E1908380830895EDDF803219F02E
:107FD00088E0F5DFFFCF84E1DECF1F93182FE3DFCA
:107FE0001150E9F7F2DF1F91089580E0E8DFEE27F6
:047FF000FF270994CA
:027FFE00040479
:0400000300007E007B
:00000001FF